:100000000C9487030C94CB030C94CB030C94CB037C
:100010000C94CB030C94CB030C94CB030C94CB0328
:100020000C94CB030C94CB030C9476280C944829A5
:100030000C94CC1E0C94CB030C94CB030C94CB03EC
:100040000C94CB030C94CB030C94CB030C94CB03F8
:100050000C94CB030C94331F0C94CB030C94CB0364
:100060000C94CB030C94CB030C94CB030C94CB03D8
:100070000C94CB030C94CB030C94CB030C94CB03C8
:100080000C94CB030C94CB030C94CB030C94CB03B8
:100090000C94CB030C94CB030C94CB030C94CB03A8
:1000A0000C94CB030C94CB030C94CB033D0643067A
:1000B00047064A064E06520656065A065F0663066D
:1000C00067066B066E06720676067A067E0683065D
:1000D000311531156B156B15A215C415E7162417CC
:1000E000CF15241776167616E01624172417201736
:1000F0008316831683168316831683168316831638
:100100008316831683168316831683168316831627
:100110009516A316AA16B116BB16A417A417B717DF
:10012000B717AD17B717B717B717A417A417B31793
:10013000B717B717B317AD29CF29BA2ACF29BA2ACB
:10014000112A342ABA2A892A9C2A6572676F646F39
:10015000782F72657365745F656570726F6D20408E
:1001600020302E352E33322D31372D6737633761EE
:100170003737006572676F646F782F7265736574C7
:100180005F656570726F6D204020302E352E3332E2
:100190002D31372D67376337613737000000F0A105
:1001A000435C435C435C435C435C0000435C435CF6
:1001B000435C435C435C435C435C435C435C435C47
:1001C000435C435C435C435C435C435C435C435C37
:1001D000435C435C435C435C435C435C435C435C27
:1001E000435C435C0000435C435C435C0000435C55
:1001F0000000435C435C435C0000435C0000435CE4
:10020000435C435C435C435C0000435C435C435C95
:10021000435C435C435C435C435C435C435C435CE6
:10022000435C435C435C435C435C435C435C435CD6
:10023000435C435C435C435C435C435C435C435CC6
:10024000435C435C435C00000000000000000000D1
:100250002A2B280000000000000000000000000021
:1002600000000029000000002C1E3420212224342C
:100270002627252E362D3738271E1F2021222324FE
:1002800025263333362E37381F0405060708090A9A
:100290000B0C0D0E0F101112131415161718191A36
:1002A0001B1C1D2F3130232D350405060708090AB4
:1002B0000B0C0D0E0F101112131415161718191A16
:1002C0001B1C1D2F3130354C0000000000000000C9
:1002D000000000000000000000000000000000001E
:1002E0000000000000000000000101010101010008
:1002F00001010101000000000000000000000000FA
:1003000000000100010001010101010101010101E1
:1003100001010101010101010101010101010101CD
:1003200001010100000001010000000000000000C8
:1003300000000000000000000000000000000000BD
:1003400000000001010101006801F000B400780024
:100350005A00643214643214783C1E1E140A0500DC
:100360000000000101010202030405050607090A55
:100370000B0C0E0F1112141517191B1D1F2123250D
:10038000282A2C2F313436393B3E414346494C4FC5
:100390005255585A5D6164676A6D707376797C7FD7
:1003A0008386898C8F9295989B9EA2A5A7AAADB0B3
:1003B000B3B6B9BCBEC1C4C6C9CBCED0D3D5D7DACB
:1003C000DCDEE0E2E4E6E8EAEBEDEEF0F1F3F4F592
:1003D000F6F8F9FAFAFBFCFDFDFEFEFEFFFFFFFF5B
:1003E000FFFFFFFEFEFEFDFDFCFBFAFAF9F8F6F555
:1003F000F4F3F1F0EEEDEBEAE8E6E4E2E0DEDCDA7D
:10040000D7D5D3D0CECBC9C6C4C1BEBCB9B6B3B0A4
:10041000ADAAA7A5A29E9B9895928F8C8986838072
:100420007C797673706D6A6764615D5A5855524F76
:100430004C494643413E3B393634312F2C2A28253E
:1004400023211F1D1B1917151412110F0E0C0B0A57
:10045000090706050504030202010101000000006E
:10046000000000000101010101010101010202027D
:100470000202020202020303030303030303040450
:100480000404040405050505050606060606070717
:100490000707080808080909090A0A0A0A0B0B0BCA
:1004A0000C0C0C0D0D0D0E0E0F0F0F101011111165
:1004B00012121313141415151616171718181919E4
:1004C0001A1A1B1C1C1D1D1E1F1F20202122222347
:1004D00024252526272728292A2B2B2C2D2E2F2F84
:1004E00030313233343536363738393A3B3C3D3E9D
:1004F0003F4041424344464748494A4B4C4D4F5088
:10050000515253555657585A5B5C5E5F6062636444
:100510006667696A6C6D6E707173747678797B7CCE
:100520007E8081838486888A8B8D8F919294969821
:100530009A9B9D9FA1A3A5A7A9ABADAFB1B3B5B73A
:10054000B9BBBDBFC1C4C6C8CACCCFD1D3D6D8DA17
:10055000DCDFE1E4E6E8EBEDF0F2F5F7FAFCFF169C
:10056000034500720067006F0044006F00780020B0
:100570000045005A00000016034500720067006F36
:100580000044006F007800200045005A000000047D
:1005900003090409026D00040100A0FA0904000027
:1005A000010301010009211101000122400007059A
:1005B000810308000A090401000103010200092166
:1005C00011010001224D000705820308000A0904F9
:1005D0000200010300000009211101000122360080
:1005E0000705830308000A09040300010300000053
:1005F00009211101000122390007058403200001AF
:100600001201100100000008EDFE071301000102B5
:10061000000105010906A101050719E029E71500F8
:10062000250195087501810205081901290595051F
:10063000750191029501750391010507190029F7CC
:100640001500250195F875018102C005010980A1F9
:100650000185021601002603001A81002A83007515
:100660001095018100C0050C0901A1018503160147
:1006700000269C021A01002A9C0275109501810037
:10068000C005010902A1010901A1000509190129FB
:1006900005150025019505750181029501750381F8
:1006A000010501093009311581257F950275088101
:1006B0000609381581257F950175088106050C0A04
:1006C00038021581257F950175088106C0C0050196
:1006D0000906A101050719E029E71500250195087C
:1006E0007501810295017508810105081901290527
:1006F0009505750191029501750391010507190092
:1007000029FF150026FF00950675088100C01124F9
:100710001FBECFEFDAE0DEBFCDBF04B603FE24C0BC
:100720008091360390913703A0913803B09139033B
:100730008730904BA740B04BB9F41092360310921B
:100740003703109238031092390314BE84B7877FA1
:1007500084BF88E10FB6F894809360001092600027
:100760000FBEE0E0FFE3099511E0A0E0B1E0E4E1B5
:10077000F9E502C005900D92AC3DB107D9F713E041
:10078000ACEDB1E001C01D92A633B107E1F70E94C4
:10079000A8250C94882C0C9400001092B9008AE0D3
:1007A0008093B800089594EA9093BC009091BC00A7
:1007B00097FFFCCF9091B900987F983021F090314D
:1007C00011F081E008958093BB0084E88093BC0021
:1007D0008091BC0087FFFCCF8091B900887F883171
:1007E00011F0803471F780E0089584E98093BC00B3
:1007F0008091BC0084FDFCCF08958093BB0084E809
:100800008093BC008091BC0087FFFCCF9091B90021
:10081000987F81E0983209F480E0089584E880931D
:10082000BC008091BC0087FFFCCF8091BB00089585
:1008300080B38C7080BB81B3836F81BB089580913E
:100840000101811115C080E40E94D303809301014E
:1008500081110CC082E10E94FD038093010181118E
:1008600005C08FEF0E94FD03809301010E94F503F4
:1008700084B1807F84B985B1807F85B98AB1837F57
:100880008AB98BB1837F8BB93E98469808950C94B2
:10089000B1050E94940A809301010E941F040E94E6
:1008A0001804EBEEF1E0ADEDB1E011921D9281E0A4
:1008B000E93FF807D1F70C94A0070E94940A8093AF
:1008C00001010E941F040E941804EBEEF1E0ADED5F
:1008D000B1E011921D9281E0E93FF807D1F7089548
:1008E0008F929F92BF92CF92DF92EF92FF920F93DF
:1008F0001F93CF93DF931F92CDB7DEB78091010195
:10090000882379F08091DC018F5F8093DC01811175
:1009100008C00E94940A80930101811102C00E94C4
:10092000260A0DED11E0812C912CEE24E394F12C9C
:10093000DD24D39495E0C92E282D273030F5809101
:100940000101811142C080E489820E94D303809317
:1009500001012981811114C082E10E94FD0380936D
:100960000101298181110CC0C701082C01C0880F29
:100970000A94EAF780950E94FD0380930101298182
:1009800029830E94F503298120C02A30A1F028F490
:10099000283059F0293061F005C02C3089F070F012
:1009A0002D3089F0209A289810C0219A29980DC0DE
:1009B000229A2A980AC0239A2B9807C0529A01C0FB
:1009C000539A5B9802C03E9A469830EA3A95F1F7FE
:1009D000273018F580910101811144C080E40E9404
:1009E000D30380930101882311F0B12C12C083E15D
:1009F0000E94FD03809301018111F7CF81E40E94E1
:100A0000D303809301018111F0CF0E940E04B82E10
:100A1000B0940E94F5038B2D26C08FB181708D2577
:100A2000799B02C090E001C092E0892B7C9B02C0C0
:100A300090E001C094E0892B7D9B02C090E001C052
:100A400098E0892B7E9B02C090E001C090E1892B49
:100A50009FB19095991F9927991F9295990F907E14
:100A6000892B01C080E0F8019081981719F08083EC
:100A7000C09200010E941F04FFEF8F1A9F0A0F5FB0
:100A80001F4F3EE08316910409F056CF809100017C
:100A90008823A1F0815080930001882329F085E00C
:100AA0008A95F1F700000AC0ABEEB1E0EDEDF1E0A0
:100AB00081918D9331E0EB3EF307D1F70E94A207BD
:100AC00081E00F90DF91CF911F910F91FF90EF90F8
:100AD000DF90CF90BF909F908F900895E82FF0E027
:100AE000E551FE4F808108950895662319F0613025
:100AF00051F00EC0FC018281882351F083E791E020
:100B00000E94760705C0FC01828181110E944A1E65
:100B100080E090E00895FB0184342CE5920769F0B1
:100B200085342CE5920789F083349C45B1F48281A9
:100B30008823A1F00E944A1E0EC08281882371F092
:100B40008AE491E00E94760706C08281882331F012
:100B500081E00E94EC0E80E0089581E008950C94FD
:100B60004A1E609180027091810280918202909170
:100B700083020E94F71D56985E9825982D98269816
:100B80002E9827982F98813019F0823021F00895FF
:100B9000259A2D9A0895269A2E9A089581E008950F
:100BA0000C948B050E9492172FEF84E39CE0215058
:100BB00080409040E1F700C000000C94591F0F9353
:100BC0001F93CF93DF938C01FC01C081D181CE01B3
:100BD0000E947E1CBE010E94B707EC01B8010E9472
:100BE000D005882309F47CC1B801CE010E94DA093E
:100BF000882309F475C1B801CE010E94C80B88236F
:100C000009F46EC1C733FCE5DF0741F4F8018281C6
:100C1000882309F465C10E94740E62C1C8338CE553
:100C2000D80708F0CBC0C5319CE5D90708F0A3C0B0
:100C3000C230ECE5DE0708F478C0F8018281882331
:100C400009F47FC00E946B1E811102C00E944A1EDF
:100C50000E947E1E90E09093280380932703FE015C
:100C6000E350FC45E231F10520F4EA5AFF4F0C94C1
:100C70003A2C80912703816003C080912703826012
:100C8000809327034BC0809127038460F9CF809124
:100C9000270313C0809127038061F2CF809127033F
:100CA0008062EECF809127038064EACF8091270392
:100CB0008068E6CF8091270384608860E1CF8091CF
:100CC00027038E7FDDCF809127038D7FD9CF809141
:100CD00027038B7FD5CF8091270313C080912703F3
:100CE0008F7ECECF809127038F7DCACF809127033F
:100CF0008F7BC6CF809127038F77C2CF8091270348
:100D00008B7F877FBDCF9091270397FB882780F942
:100D100021E0822780FB97F9909327038091270396
:100D20000E94821E0E949217DBC0C115FCE5DF07FE
:100D300079F0C130DC45A1F081E08093FB01809324
:100D4000FC01C801DF91CF911F910F910C94CE054A
:100D5000F8018281882309F4C3C00E94D205C0C073
:100D6000F8018281882309F4BBC08091AD028160C3
:100D70008093AD02B5C0C5339CE5D90741F4F801B5
:100D80008281882309F4ACC00E94690FA9C0C633D0
:100D9000ECE5DE0740F0F8018281882309F4A0C069
:100DA0000E945B0E9DC0C433DC4531F6F8018281A0
:100DB000882309F495C00E94730F92C0CB338CE551
:100DC000D80741F4F8018281882309F489C00E9480
:100DD000D20E86C0CC339CE5D907D8F4F8018281C5
:100DE000C933FCE5DF0731F4882309F479C00E9498
:100DF000A50E76C0CA33DC4530F4882309F470C0F0
:100E00000E94930E6DC0882309F46AC00E94B70E39
:100E100067C0CD33ECE5DE0739F5F8018281882320
:100E200061F01092FC010E94FE1E9093FA018093E3
:100E3000F90180E20E94E31453C08091FC0181110A
:100E40000FC08091F9019091FA010E940A1F883C1D
:100E5000910530F487E20E94C11387E20E94941446
:100E600080E20E94EA143CC0CD33FCE5DF0718F5B0
:100E7000F8018281882351F01092FB010E94FE1E2E
:100E80009093FA018093F90182E0D4CF8091FB0125
:100E900081110FC08091F9019091FA010E940A1FFF
:100EA000883C910530F486E20E94C11386E20E94DC
:100EB000941482E0D6CFC0348CE5D80731F4F80121
:100EC0008281882369F080E009C0C134DC4509F0E3
:100ED00033CFF8018281882319F082E00E943C26FA
:100EE00080E0DF91CF911F910F9108951F93CF93D1
:100EF000DF93EC01FE0124912223F1F030E0F901AF
:100F0000E85BFD4F1491F901E853FD4F2491222332
:100F100059F081EE0E94C113812F0E94C113812FCD
:100F20000E94941481EE04C0812F0E94C113812F6E
:100F30000E9494142196DECFDF91CF911F910895E6
:100F40000C947E0A0C944704282F882339F090E0F3
:100F50002A3010F44D9608950697089587E290E0A0
:100F6000089508950C94B1070C94B207089596E083
:100F7000799FF001112494E5899FE00DF11D112462
:100F8000E60FF11DEE0FFF1FE056FE4F8591949185
:100F90000895880F991F84569E4FFC018591949166
:100FA00008950E94B7070E945D09811520E4920709
:100FB000B0F5811540E3940708F0DBC0803E910551
:100FC000D8F4803C910508F069C0883A910578F41E
:100FD000853A910508F065C08130910509F46CC12E
:100FE00008F423C18430910508F066C11EC18D3B11
:100FF000910508F461C019C18F3F910509F048F4CB
:10100000803F910508F0AFC0883E910508F454C1B7
:101010000CC1811520E2920708F0A7C00895811540
:1010200044E59407D8F4811523E5920708F0DCC065
:10103000811541E5940740F4811520E5920708F0F9
:10104000A2C09F70906A0895811542E5940708F048
:10105000B6C0982F8827816F906A0895811526E57C
:10106000920750F4811545E5940708F0D2C0982FF7
:101070008827846F906A0895811528E5920708F4FF
:10108000D4C0811549E5940708F4C8C09C013056C6
:101090002115304208F0C9C09F71C5C0805C91091C
:1010A00065C0853A910509F4C3C0863A910509F4F3
:1010B000C2C083E890E40895883A910509F4BEC05F
:1010C000893A910509F4BDC08A3A910509F4BCC07A
:1010D0008B3A910509F4BBC08C3A910509F4BAC06A
:1010E0008B3B910509F4B9C08C3B910509F4B8C05C
:1010F0008D3A910509F4B7C0803B910509F4B6C05B
:101100008E3A910509F4B5C08F3A910509F4B4C03F
:10111000813B910509F4B3C0823B910509F4B2C04B
:10112000833B910509F4B1C0843B910509F4B0C03B
:10113000853B910509F4AFC0863B910509F4AEC02B
:10114000873B910509F4ADC0883B910509F4ACC01B
:10115000893B910509F4ABC08A3B910509F0AAC00F
:101160008AE296E40895906508959F700E94C907E9
:1011700008959C01332793FF03C0C901986C08951B
:10118000C901906C0895482F437021E030E002C0FF
:10119000220F331F4A95E2F73C68AC0174E0569584
:1011A00047957A95E1F74370342B8F708695869535
:1011B00040E2849FC0011124822B932B0895282F95
:1011C0002695269540E2249F90011124AC0143709E
:1011D000552781E090E002C0880F991F4A95E2F7F9
:1011E000822B932B9C680895282F2695269540E204
:1011F000249F90011124AC014370552781E090E0B9
:1012000002C0880F991F4A95E2F7822B932B9A68A8
:1012100008958F719927982F882705C0982F8827C0
:10122000806F906A08959062089580E090E008953C
:1012300081E890E4089582E890E4089582EE94E4D1
:10124000089589EE94E408958AEE94E4089585EB78
:1012500094E4089586EB94E4089583EB94E4089570
:1012600084EB94E4089587EB94E408958CEC94E483
:1012700008958DEC94E4089583E895E408958AE850
:1012800095E4089582E995E4089584E995E4089544
:1012900081E296E4089583E296E4089584E296E478
:1012A000089585E296E4089586E296E4089587E23B
:1012B00096E4089580E094E408958238910549F118
:1012C000B0F48133910509F459C048F4893291058D
:1012D00009F44FC08A32910509F455C00895853349
:1012E000910509F441C08933910599F00895833E31
:1012F000910531F138F4803E910591F0823E9105DF
:10130000A9F00895863E910501F1873E910539F1D6
:1013100008952091270320FD3BC021FD39C0089589
:101320008091270380FF34C089E341C08091270367
:1013300082FF32C08091270384FF2CC080E037C039
:101340008091270382FD28C0F5CF8091270383FF7A
:1013500025C08091270384FDF1CF87EE28C08091BE
:10136000270383FD1BC0F5CF8091270385FF18C09D
:1013700019C08091270385FF15C012C080912703F3
:1013800086FF12C013C08091270386FF0FC00CC0D8
:1013900080EE0DC083EE0BC082EE09C086EE07C062
:1013A00085E305C089E203C081E301C08AE290E0E1
:1013B00008950895CF93DF93EC01FB0182818111A1
:1013C00002C081E040C080910A02811125C0C53170
:1013D000DC45B9F70E94D90981E080930A020E9496
:1013E000FE1E90930902809308021092FD01109254
:1013F000FF011092FE011092010210920002109261
:10140000030210920202109205021092040210923E
:1014100007021092060216C08091080290910902FC
:101420000E940A1F883C910560F68091FD01E82F1B
:10143000F0E0EE0FFF1FE250FE4FD183C0838F5FBD
:101440008093FD0180E0DF91CF91089556985E98DA
:1014500025982D9826982E9827982F988FEF90E012
:10146000909389008093880090938B0080938A00EA
:1014700090938D0080938C00259A2D9A2FEF80E712
:1014800092E0215080409040E1F700C00000269A91
:101490002E9A2FEF80E792E0215080409040E1F7B4
:1014A00000C00000279A2F9A2FEF80E792E021508A
:1014B00080409040E1F700C0000025982D982FEF64
:1014C00080E792E0215080409040E1F700C00000AA
:1014D00026982E982FEF80E792E021508040904090
:1014E000E1F700C0000027982F9856985E9825983D
:1014F0002D9826982E9827982F98089589EA8093FA
:10150000800089E08093810024982C983F988AB1CC
:101510008F7C8AB96E98479A8BB180638BB9769A23
:101520000E94260A0C94AF0580E28093010180910D
:101530000B0281110EC00E94CD0381E080930B024B
:101540002FEF83ED90E3215080409040E1F700C001
:10155000000080E40E94D3038093010181112EC01A
:101560000E94FD0380930101811128C00E94FD03A8
:1015700080930101811122C08FE30E94FD038093BB
:10158000010181111BC00E94F50380E40E94D30376
:1015900080930101811112C08CE00E94FD038093B1
:1015A000010181110BC00E94FD0380930101811193
:1015B00005C08FE30E94FD03809301010E94F503A3
:1015C000809101010895E0910301F091040180816F
:1015D0008093DE0281FF03C081EE0E94941480910B
:1015E000DE0285FF03C085EE0E9494148091DE0226
:1015F00080FF03C080EE0E9494148091DE0284FF7D
:1016000003C084EE0E9494148091DE0282FF03C026
:1016100082EE0E9494148091DE0286FF03C086EE63
:101620000E9494148091DE0283FF03C083EE0E9427
:1016300094148091DE0287FF03C087EE0E94941409
:1016400080910C028130A1F078F0823011F1843069
:1016500049F586EE0E94C11386EE0E94941488E13B
:101660000E94C11388E11CC082EE0E94C1131AC0FF
:1016700080EE0E94C11381EE0E94C11388E10E9496
:10168000C11388E10E94941481EE0E94941480EEAC
:1016900007C082EE0E94C11387E50E94C11387E54F
:1016A0000E9494148FE39CE90197F1F700C00000B9
:1016B000089580910C02813029F010F0823041F4BD
:1016C00082EE04C08CE20E94C1138CE20E9494144A
:1016D0008091DE0281FF03C081EE0E94C1138091E0
:1016E000DE0285FF03C085EE0E94C1138091DE02F9
:1016F00080FF03C080EE0E94C1138091DE0284FF50
:1017000003C084EE0E94C1138091DE0282FF03C0F9
:1017100082EE0E94C1138091DE0286FF03C086EE36
:101720000E94C1138091DE0283FF03C083EE0E94FA
:10173000C1138091DE0287FF03C087EE0C94C113B2
:101740000895FF920F931F93CF93DF938C01CCE00A
:10175000D0E0C8010C2E02C0969587950A94E2F756
:10176000282F2F70F22E822F0E94A4070E94C113EF
:101770008F2D0E94A4070E9494142497CC3F8FEFD2
:10178000D80739F7DF91CF911F910F91FF900895FE
:10179000CF93DF93EC01C13080E8D80760F0FB0104
:1017A0008281882341F00E94E30ACE019F770E9444
:1017B000A10B0E94590B81E0DF91CF9108958823FE
:1017C00019F05198599A02C0519A59985098589ABC
:1017D00095E09A95F1F70000509A589895E09A95FF
:1017E000F1F70000882311F0519A599885E08A9505
:1017F000F1F7000008958BB18C7F8BB95098589AFF
:101800005198599A85E08A95F1F7000008958AB1B8
:101810008C7F8AB985E08A95F1F70000519A599832
:1018200085E08A95F1F70000509A589885E08A95EE
:10183000F1F7000008955098589A85E08A95F1F7DD
:1018400000005198599A85E08A95F1F700000895B3
:10185000CF93DF93D82FC8E08D2F80780E94DF0BC5
:10186000DD0FC150C9F780E00E94DF0B85E08A954B
:10187000F1F7000085E08A95F1F7000080E0DF9144
:10188000CF9108953BB1242F209523233BB1342BD6
:101890004FB7F894FC01680F791FE617F70789F036
:1018A000819198E03BB9000000C087FF2BB9880FF9
:1018B000000000C000C000C02BB900C09A9591F78D
:1018C000ECCF4FBF0895AF92BF92CF92DF92EF92CD
:1018D000FF920F931F93CF93DF938C01EB01AFB671
:1018E000B090BC00F8948091BC008B7F8093BC00CA
:1018F0000E94FB0B0E94070C84E80E94280CCC0F6E
:10190000DD1FCC0FDD1F78016E01C00ED11EEC145F
:10191000FD0431F0F70181917F010E94280CF7CF7F
:101920000E941B0CAFBEB092BC00579A40E8BE01AB
:10193000C801DF91CF911F910F91FF90EF90DF9041
:10194000CF90BF90AF900C94420CDF92EF92FF9239
:101950000F931F93CF93DF93662309F44AC0E42FBC
:10196000F0E0AFEFB0E0A61BB109BF01A69FE00118
:10197000A79FD00DB69FD00D1124FD2FDD2E7B012A
:10198000ED1AF1080CE310E0B8010E94122CEB01F3
:10199000BC01E69EC001E79E900DF69E900D1124BD
:1019A000B8010E94122CC230D105B1F040F420974A
:1019B00079F0219709F58F2FD42E461B20C0C43013
:1019C000D10599F068F02597B9F4842F861B17C0CC
:1019D0008F2FD62EDF0E13C0862F8F0FD42E03C06D
:1019E000D42ED61A842F4F2F0AC0842F462F4F0F84
:1019F00006C0842FD42E03C080E0D12C40E0E42F19
:101A0000F0E0E15AFB4F4491ED2DF0E0E15AFB4F3D
:101A10009491E82FF0E0E15AFB4FE491D90111963F
:101A20004C9311979C931296EC93DF91CF911F9159
:101A30000F91FF90EF90DF90089588E090E00C9474
:101A4000482CAB01BC0188E090E00C94662C83E04C
:101A50008093DF021092E0028FEF8093E102809387
:101A6000E2026091DF027091E0028091E1029091C8
:101A7000E2020C94210D8091DF0280FF06C06FE02E
:101A800070E087EE92E00C94630CE9EEF2E0DF0187
:101A900011971C92DF0112971C921082349683E0FA
:101AA000E532F807A1F7EBCFE9EEF2E0DF0111979D
:101AB0008C93DF0112976C934083349693E0E53268
:101AC000F907A1F70C943B0DCF92DF92EF92FF92B2
:101AD0000F931F93CF93DF9300D000D0CDB7DEB725
:101AE000F82EC92ED62EE42E0091DF021091E002CE
:101AF0002091E1023091E2020093E3021093E402AC
:101B00002093E5023093E6028091DF0280FF1EC041
:101B10009E012F5F3F4F8F2D0E94A50C8091E30205
:101B2000F0FA87F98093E302F6942091E40220789A
:101B30002F29C0FA27F92093E402D092E502E0921F
:101B4000E6024B8169818A810E94540D0F900F90AB
:101B50000F900F90DF91CF911F910F91FF90EF9019
:101B6000DF90CF9008958F929F92AF92BF92CF92C5
:101B7000DF92EF92FF920F931F93CF93DF93EC01CD
:101B8000862E942E8091DF0280FF88C0982F9E774A
:101B9000923021F4CE010E94640D56C0E82FE695E4
:101BA000EF739EE39E0F9F73943018F49090E202BF
:101BB0004BC09AE39E0F9F73993070F4881F88275B
:101BC000881F9091E002292F220FC22FC82B97FB6C
:101BD000992790F9D92F38C087E28E0F8F738A30FA
:101BE00098F5F0E07997E0FF02C02FEF01C021E007
:101BF000EE7FE85BFC4F859194916FE070E00E946E
:101C0000122C26036001279FD00C11247E0188E945
:101C1000E81A8EEFF80A07EE12E088E6A82EBB2439
:101C2000B394C701B5010E94122C9801492D682D6B
:101C30000E94A50CEC0CFD1C0C5F1F4F93E00332BF
:101C4000190779F70E943B0D8091DF029C2FC0FBA2
:101C500087F98093DF0296958091E0028078892B46
:101C6000D0FB87F98093E0028092E1029092E20239
:101C70006091DF027091E0028091E1029091E202B6
:101C8000DF91CF911F910F91FF90EF90DF90CF9058
:101C9000BF90AF909F908F900C94210DDF91CF91CA
:101CA0001F910F91FF90EF90DF90CF90BF90AF907A
:101CB0009F908F9008952091DF02221F2227221FDC
:101CC0003091E002432F440F842F822B37FB99275A
:101CD00090F90C9668E671E00E94262C4091E20291
:101CE0006091E1020C94B30D2091DF02221F2227A4
:101CF000221F3091E002432F440F842F822B37FBA9
:101D0000992790F98C3091051CF4845A9E4F01C09C
:101D10000C9768E671E00E94262C4091E2026091E7
:101D2000E1020C94B30D8091DF02881F8827881F81
:101D30009091E002292F220F97FB992790F940916B
:101D4000E2026FEF822B0C94B30D8091DF02881FAB
:101D50008827881F9091E002292F220F97FB99274F
:101D600090F94091E20260E0822B0C94B30D409117
:101D7000E202842F90E0843F910514F4445F01C097
:101D80004FEF8091DF02881F8827881F9091E00223
:101D9000292F220F97FB992790F96091E102822B5E
:101DA0000C94B30D4091E202842F90E00C9714F054
:101DB0004C5001C040E08091DF02881F8827881FB7
:101DC0009091E002292F220F97FB992790F96091BB
:101DD000E102822B0C94B30D9091DF0290FF44C07E
:101DE0009178811102C0926003C0833220F0946424
:101DF0009093DF0205C08F73880F892B8093DF02D9
:101E00006091DF027091E0028091E1029091E20224
:101E10000E94210D8091DF02982F9E77923019F455
:101E20001092220210C0982F96959F732EE3290FCF
:101E30002F73273120F491E09093220204C0995D22
:101E40009F739A3068F3881F8827881F9091E0025B
:101E5000292F220F97FB992790F94091E202609178
:101E6000E102822B0C94B30D08958091AD02816044
:101E70008093AD0281E0809323020E946B1E81114A
:101E800004C00E944A1E0E94270D0E941D0D6093EF
:101E9000DF027093E0028093E1029093E2026E779A
:101EA00061F40E94270D0E941D0D6093DF02709364
:101EB000E0028093E1029093E20281E080932202AB
:101EC0008091DF0280FF04C086958F730C94EC0E26
:101ED00008958091DF0286958F738F5F833208F0BB
:101EE00081E00C94EC0E8091DF02982F909590FB8E
:101EF00080F98093DF026091DF027091E0028091AF
:101F0000E1029091E2020E94210D8091DF0280FFA8
:101F100004C086958F730C94EC0E109222022FEF62
:101F200080E792E0215080409040E1F700C000003F
:101F30000C943B0DCF93C82F8091200290912102E9
:101F40000E940A1FEC2FF0E0E55AFC4FE491F0E00C
:101F50008E179F0710F10E94FE1E9093210280931E
:101F60002002E0911F02F0E0E15AFC4F4491809181
:101F7000DF02881F8827881F9091E002292F220FF7
:101F800097FB992790F96091E102822B0E94640DE2
:101F900080911F028F5F80931F02CF910895CF938E
:101FA000C82F80911D0290911E020E940A1FEC2FE3
:101FB000F0E0E85AFC4FE491F0E08E179F07E8F05C
:101FC0000E94FE1E90931E0280931D024091E20229
:101FD0006091E10280911B0290911C020E94640DAD
:101FE00080911B0290911C02019668E671E00E94AC
:101FF000122C90931C0280931B02CF910895DF92C4
:10200000EF92FF920F931F93CF93DF93D82E80917F
:10201000190290911A020E940A1FED2DE695F0E038
:10202000E85AFC4FE491F0E08E179F07E8F10E9418
:10203000FE1E90931A028093190207EE12E0C0E090
:10204000D0E098E6E92EFF24F39480911702909156
:1020500018028C0F9D1FB7010E94122C980140910D
:10206000E2026091E1020E94A50C68960C5F1F4F8E
:10207000C83681E0D80749F70E943B0D209117022E
:1020800030911802D0FE0AC0C9010196BE010E941B
:10209000122C909318028093170206C02150310928
:1020A0003093180220931702DF91CF911F910F9167
:1020B000FF90EF90DF9008958F929F92AF92BF9222
:1020C000CF92DF92EF92FF920F931F93CF93DF9304
:1020D000C82F80FD03C09924939402C099249A9438
:1020E00080911502909116020E940A1FC695EC2F4E
:1020F000F0E0EB5AFC4FE491F0E08E179F0708F4F4
:1021000069C00E94FE1E909316028093150237EE5E
:10211000E32E32E0F32E09EE12E0C0E0D0E047E01B
:10212000A42EB12CF80131971082F7011082F8012A
:10213000108227E0C22ED12C812C80911402880DB0
:1021400087FD815F992787FD9095C817D907E9F426
:102150002091E2022C9DC0012D9D900D1124B5010E
:102160000E94262C462F8091DF02881F8827881F17
:102170009091E002592F550F97FB992790F99701FD
:102180006091E102852B0E94A50C890CF1E0CF1A29
:10219000D108C114D10489F6219684E0E80EF11C1F
:1021A0000C5F1F4FCF30D10509F0BCCF0E943B0D13
:1021B0008091140291E0991206C0811102C08EE054
:1021C00007C0815005C090E00196BE010E94262CF8
:1021D00080931402DF91CF911F910F91FF90EF90A8
:1021E000DF90CF90BF90AF909F908F9008959F9277
:1021F000AF92BF92CF92DF92EF92FF920F931F9315
:10220000CF93DF93CDB7DEB7EC970FB6F894DEBF70
:102210000FBECDBF182F80911202909113020E9421
:102220000A1FE12FF0E0EE5AFC4FE491F0E08E1728
:102230009F0708F492C00E94FE1E909313028093A1
:1022400012028E010F5F1F4F5E0183E0A80EB11CCA
:10225000E12CF12C6801F50131971082F801108210
:10226000F5011082912C9091020180911102999EAA
:10227000800D112487FD04C08F301CF08EE001C05A
:1022800080E0992787FD9095E816F906A1F48091E2
:10229000DF02881F8827881F9091E002592F550F71
:1022A00097FB992790F998014091E2026091E10231
:1022B000852B0E94A50C9394F7E09F12D4CF8FEF4B
:1022C000E81AF80A0C5F1F4FE4E0AE0EB11CFFE005
:1022D000EF16F10409F0BFCF29EE32E009E010E07B
:1022E0006FE0E62EF12CC801B7010E94262CFC01FC
:1022F000D9011197EE0FFF1FEE0FFF1FEC0DFD1D13
:1023000081818C93D901129780818C938281F9010C
:1023100080830F5F1F4F2C5F3F4F0831110519F766
:102320000E943B0D9091020180911102913049F47D
:102330008A3F2CF489EF809311028FEF08C08150FF
:102340000AC086313CF085E18093110281E08093E0
:10235000020103C08F5F80931102EC960FB6F894D0
:10236000DEBF0FBECDBFDF91CF911F910F91FF90C8
:10237000EF90DF90CF90BF90AF909F900895EF9235
:10238000FF920F931F93CF93DF9380910F02909151
:1023900010020E940A1F883E9340C8F10E94FE1E50
:1023A0009093100280930F02C0910D02D0910E0203
:1023B0002196C170DD27D0930E02C0930D0207EE67
:1023C00012E0F12C78E7E72E8F2D8695FE01E80FBD
:1023D000F11DCF018170992798014091E20260912F
:1023E000E102FC01EE9EC001EF9E900D11240E94BF
:1023F000A50CF3940C5F1F4FFFE0FF12E5CFDF91B8
:10240000CF911F910F91FF90EF900C943B0DDF91B6
:10241000CF911F910F91FF90EF900895809122022C
:10242000882391F12091DF02822F86958F739EE39E
:10243000980F9F73943018F482500C949A0F9AE37B
:10244000980F9F73933018F486500C94CF0F97E336
:10245000980F9F73963018F489500C94FF0F91E3F6
:10246000980F9F73963018F48F500C945C109BE279
:10247000980F9F73933018F485510C94F7102E77B2
:10248000203311F40C94BF11089590932902809386
:1024900028020895E0912802F0912902309721F056
:1024A0000190F081E02D099480E00895E0912802E8
:1024B000F0912902309721F00280F381E02D0994F8
:1024C0000895E0912802F0912902309721F00480CC
:1024D000F581E02D0994089520912602309127027C
:1024E0008217930771F09093270280932602E09160
:1024F0002802F0912902309721F00680F781E02D23
:10250000099408952091240230912502821793079F
:1025100071F09093250280932402E0912802F091BB
:102520002902309721F00084F185E02D0994089567
:1025300008950C9498120E94F51E0E9449040E946E
:102540007C1F0C94350FCF92DF92EF92FF920F9386
:102550001F93CF93DF93CDB7DEB72B970FB6F894C9
:10256000DEBF0FBECDBF0E9470043BE2E32E32E01F
:10257000F32E00E010E0C02E802F0E946E05F701C0
:10258000D1907F01D826B1F40F5F1F4F0E30110597
:1025900091F78FEF89838A831B820E94FE1E8160E0
:1025A000782F9D838C8349815A816B818D810E9414
:1025B000821341C09091AD0291FF04C08B870E94AD
:1025C00074058B8520E030E04D2D50E0922FBA014C
:1025D000022E02C0759567950A94E2F760FF25C048
:1025E0002E83CF82EE24E394F12C02C0EE0CFF1C6C
:1025F0009A95E2F790E08E219F2121E0892B09F442
:1026000020E028870E94FE1E8160782F9A878987A4
:102610004E815F8168858A850E948213F801E55D9D
:10262000FD4F80818E25808306C02F5F3F4F26306F
:10263000310561F6A9CF0E940E2110912A020E9455
:102640004A121817A1F00E944A1280932A022B9670
:102650000FB6F894DEBF0FBECDBFDF91CF911F91B3
:102660000F91FF90EF90DF90CF900C94B4072B96D2
:102670000FB6F894DEBF0FBECDBFDF91CF911F9193
:102680000F91FF90EF90DF90CF900895DC011196AD
:102690004C9111975C91852F90E021E030E001C0D2
:1026A000220F5A95EAF712966C91129750E0662322
:1026B00019F06091470205C0FA01E75CFD4F6081A7
:1026C00062236623B9F036E0349FF001359FF00DA8
:1026D0001124E80FF91FEE0FFF1FEB5EFE4F808104
:1026E00091818D939C93FA01E75CFD4F8081822B51
:1026F00080830895FA01E75CFD4F209580812823AF
:1027000020830895CF93DF93CDB7DEB72B970FB615
:10271000F894DEBF0FBECDBF4F83588769877A8795
:102720008B878A859B85892B31F05F3F11F080E094
:1027300003C04F3FE1F781E0811104C0CE0107964D
:102740000E944613DE01119686E0FD0111928A95E2
:10275000E9F785E0FE01379601900D928A95E1F741
:1027600049815A816B817C818D819E810E945C1A96
:102770002B960FB6F894DEBF0FBECDBFDF91CF9181
:102780000895CF93C82F882309F4CCC0823859F418
:102790000E944A1281FDC6C089E30E94FE1C0E946D
:1027A000C81D89E30CC0833879F40E944A1280FD69
:1027B000B9C083E50E94FE1C0E94C81D83E50E94EB
:1027C0003E1DCF910C94C81D843859F40E944A12C2
:1027D00082FDA8C087E40E94FE1C0E94C81D87E4F9
:1027E000EECF8CEF8C0F813A48F48C2F0E9445235A
:1027F000811198C08C2F0E94FE1CE3CF80E28C0FC9
:10280000883048F4C77081E001C0880FCA95EAF7A4
:102810000E947F1DD6CF8BE58C0F833078F4C53AAC
:1028200029F0C63A31F482E890E005C081E890E0F2
:1028300002C083E890E0CF910C946C1288E58C0F75
:10284000853108F06FC0C83A61F1C93A69F1CA3AF6
:1028500071F1CB3A79F1CC3A81F1CB3B89F1CC3BA8
:1028600091F1CD3A99F1C03BA1F1CE3AA9F1CF3A1D
:10287000B1F1C13BB9F1C23BC1F1C33BC9F1C43BAA
:10288000D1F1C53BD9F1C63BE1F1C73BE9F1C83B0A
:10289000F1F1C93BF9F1CA3B09F03FC08AE292E08D
:1028A0003EC082EE90E03BC089EE90E038C08AEEF8
:1028B00090E035C085EB90E032C086EB90E02FC011
:1028C00083EB90E02CC084EB90E029C087EB90E094
:1028D00026C08CEC90E023C08DEC90E020C083E813
:1028E00091E01DC08AE891E01AC082E991E017C02A
:1028F00084E991E014C081E292E011C083E292E0A9
:102900000EC084E292E00BC085E292E008C086E24D
:1029100092E005C087E292E002C080E090E0CF91B3
:102920000C948212CF910895882309F44BC0823809
:1029300059F40E944A1281FF45C089E30E94FE1C9F
:102940000E94C81D89E30CC0833871F40E944A12AA
:1029500080FF38C083E50E94FE1C0E94C81D83E5ED
:102960000E943E1D0C94C81D843859F40E944A12DE
:1029700082FF28C087E40E94FE1C0E94C81D87E4D5
:10298000EFCF9CEF980F913A58F390E2980F983060
:1029900050F4877091E001C0990F8A95EAF7892F6A
:1029A0000E94851DDFCF9BE5980F933020F480E0D7
:1029B00090E00C946C12885A853120F480E090E00D
:1029C0000C9482120895882321F00E947F1D0C949C
:1029D000C81D0895882321F00E94851D0C94C81DF0
:1029E00008958F929F92BF92CF92DF92EF92FF92C3
:1029F0000F931F93CF93DF9300D0CDB7DEB74C0179
:102A0000472FFC01E580E2949FE0E922F280FF205D
:102A100031F079836A830E949C1D6A8149814983D0
:102A20006A830E94F71C49816A81882389F0FF200C
:102A300079F080E2860F883058F082E00E94E01C36
:102A40000E94F71CBB24B394B82649816A8101C057
:102A5000B12CE42FE295EF70F0E0E859FF4F0C94B1
:102A60003A2C842F807F142F1F70882311F0129529
:102A7000107FFF20C1F0112309F498C180E2860F76
:102A8000883010F0611105C0812F6A830E947F1D7C
:102A900004C0812F6A830E948F1D6A816A830E940D
:102AA000C81D6A8183C1862F6A830E9494146A813B
:102AB000112309F4C9C180E2860F883010F061113A
:102AC00004C0812F0E94851D03C0812F0E94951D87
:102AD0000E94C81DB9C1242F207F842F8F702032FF
:102AE00011F08295807F662319F06130B9F020C023
:102AF000FF2049F0EE2009F40FC1F1E0EF120CC104
:102B00000E94AF1DA1C1EE2021F091E0E91609F469
:102B10009BC189830E94B21D898104C1FF2029F0D5
:102B2000E1E0EE1508F490C1F7C0E1108DC1FAC0E4
:102B3000FF2021F0EE2009F4EFC038C1EE2009F4A7
:102B4000F1C03AC1242F26952695237030E0211537
:102B5000310521F02130310561F076C1FF2021F0EF
:102B6000862F942F937002C080E090E00E946C1238
:102B70006BC1FF2021F0862F942F937002C080E05C
:102B800090E00E94821260C1862FFF2019F00E94FF
:102B9000162002C00E947E200E94032155C1842F6E
:102BA000837009F04EC0F1104FC1262F2295269553
:102BB0002770220F220F862F8F70C82ED12CE12C68
:102BC000F12C022E04C0CC0CDD1CEE1CFF1C0A9460
:102BD000D2F764FF10C06FE070E080E090E004C0C6
:102BE000660F771F881F991F2A95D2F760957095F9
:102BF0008095909503C060E070E0CB01242F26956E
:102C00002695237030E02230310569F023303105FC
:102C100089F06C297D298E299F292130310571F099
:102C20000E94AD1B11C16C297D298E299F290E940C
:102C3000BF1B0AC10E94AD1BC701B6010E949B1BAE
:102C400003C1FF2019F0842F817001C0869588236D
:102C500009F4FAC0262F229526952770220F220FFD
:102C6000862F8F70C82ED12CE12CF12C022E04C09F
:102C7000CC0CDD1CEE1CFF1C0A94D2F764FF10C0C4
:102C80006FE070E080E090E004C0660F771F881F5F
:102C9000991F2A95D2F7609570958095909503C0FD
:102CA00060E070E0CB01242F26952695237030E05C
:102CB0002230310569F02330310589F06C297D29F6
:102CC0008E299F292130310571F00E94591CBCC00A
:102CD0006C297D298E299F290E946B1CB5C00E94FA
:102CE000591CC701B6010E94471CAEC0062F10E058
:102CF000F801E05EF109E531F10508F053C0E8584C
:102D0000FF4F0C943A2C162F1F70842F8F71FF20C9
:102D100031F00E94F21B812F0E94E31495C00E94A3
:102D20000D1C812F0E94EA148FC0FF2039F0E110A2
:102D30008BC0842F8F710E942C1C86C0F1E0FE1581
:102D400008F482C0F6CFFF2039F0842F8F710E94E3
:102D5000F21B7AC0FF20C9F3842F8F710E940D1CD3
:102D600073C0FF2029F0842F8F710E94E31B6CC079
:102D70000E94DE1B69C0FF2051F0142F1F71812FAC
:102D80000E94F21B63E0812F0E94D71C5DC081E08E
:102D90000E94E01C81E08E1508F056C082E00E947F
:102DA000E01C52C0FF2031F0EE2079F2862F0E9405
:102DB000C1134AC0EE2081F2862F0E94941444C0B1
:102DC0004F70C4010E9475050E94091B3DC0623FFF
:102DD000A9F128F4603F49F0613FE1F020C0643F71
:102DE000A1F050F0653F69F01AC0FF2049F18091D1
:102DF000470221E0822702C081E08F2580934702AD
:102E00001FC0F1101DC081E0F9CFF11019C0109260
:102E1000470216C0EE2091F0F11012C0E8CFEE206C
:102E200069F0862F49836A83FF2019F00E94C1133D
:102E300002C00E94941449816A8102C0F092470244
:102E40004F70C4010E94B607BB20F1F00E94D31C52
:102E500080FD1AC0F40112820E94CD1C0E94F21B58
:102E6000C4010E9452170E94CD1C0F900F90DF9159
:102E7000CF911F910F91FF90EF90DF90CF90BF9077
:102E80009F908F900C940D1C0F900F90DF91CF911D
:102E90001F910F91FF90EF90DF90CF90BF909F9088
:102EA0008F9008950F931F93CF93DF93EC012881A8
:102EB00039818B819C81892B31F03F3F11F080E07B
:102EC00003C02F3FE1F781E0811113C0CE010E94C2
:102ED000DF05882371F0688179818A810E94C91C8D
:102EE0008C010E947D1C0E94981BB801CE010E949B
:102EF000F114DF91CF911F910F9108950E949C1DB5
:102F00000E94AC1D0E94711D0E94C81D0E94AF212D
:102F10000E94032180E090E00E946C1280E090E02B
:102F20000C9482120E948C1D0C947E170E94BE1C71
:102F3000E92FE295EF70F0E03297EE30F105B8F44A
:102F4000E357FF4F0C943A2C803F59F018F4803E21
:102F500070F407C0843F59F404C0803E10F0813FF4
:102F600031F481E0089593FB882780F9089580E08B
:102F70000895CF93DF9300D000D01F92CDB7DEB776
:102F80000F900F900F900F900F90DF91CF910895B9
:102F9000CF93DF9300D000D000D0CDB7DEB7269618
:102FA0000FB6F894DEBF0FBECDBFDF91CF9108956D
:102FB0001F93CF93DF93C091480216E0809149029E
:102FC000C81799F0D0E01C9FF0011D9FF00D11244F
:102FD000E65BFD4F408151816281738184819581DF
:102FE0000E94C8172196C770E9CFDF91CF911F913A
:102FF000089540917A0250917B0260917C02709119
:103000007D0280917E0290917F020C94C817CF932D
:1030100080917F0282958F7009F05FC080917C0261
:10302000882309F45AC020914802A0914902609176
:103030007A0270917B0280917D0290917E0231E054
:103040006F3F09F030E0B32FC6E02A1709F445C0FE
:10305000009721F07F3F21F44B2F03C041E001C0D6
:1030600040E030E040FD35C0C29FF001C39FF00D4D
:103070001124E65BFD4F418174132BC04081641322
:1030800028C04281411125C0438154814817590706
:1030900010F441505109481B590B483C5105C8F4E4
:1030A00080917F028F70806180937F0286E0829F93
:1030B000F001839FF00D1124E15BFD4F80818F7043
:1030C000806180838AE792E00E945217CF910C942E
:1030D000D8172F5F3F4F2770B8CFCF910895CF9269
:1030E000DF92EF92FF920F931F93CF93DF93CDB7B1
:1030F000DEB762970FB6F894DEBF0FBECDBF8C016E
:1031000085E0F801DE011D9601900D928A95E1F7A8
:10311000D8014C9111965C91119712966C9112976F
:103120001396ED90FC90149770917A02E0917B02D7
:1031300020917D0230917E022115310531F0EF3F63
:1031400031F481E07F3F19F403C081E001C080E0E9
:10315000B82FB170CB2E80FD6CC1D0907C02DD20E9
:1031600009F4F5C0F0917F02E216F30638F0C701CA
:10317000821B930B883C910548F09BC020953095AD
:103180002E0D3F1D283C310508F093C08F2F807F06
:1031900009F052C0E51314C0741312C0D62E611189
:1031A0000FC0FF70F061F0937F020E94F9178AE769
:1031B00092E00E94521780917F02F80185836CC1D2
:1031C000EF2831F05F3F31F481E04F3F19F403C045
:1031D00081E001C080E080FD03C081E0862701C05E
:1031E00080E0F82FF170FF2E80FF1CC08091480214
:1031F0002091490236E0821709F428C190E0389FF7
:10320000F001399FF00D1124E65BFD4F71815713DA
:1032100006C07081471303C07281671303C0019613
:103220008770E9CFD62E662309F436C180917F02DC
:10323000816080937F0253C0E51308C0741306C0F9
:10324000611104C0D8011596FC93AEC04D875E870E
:103250008D859E856A8B0E9496176A89882329F13D
:10326000D62E662311F120917F02822F82958F70D6
:1032700090E002970CF460C080917A0290917B02FA
:1032800098878F831986FB86EA862C87CE0107965E
:1032900051C0E51731F14D875E878D859E856A8B1C
:1032A0000E9496176A8981112EC0C8010E94521788
:1032B000A4C08F2F807F69F77E2DF98AE88A8989DB
:1032C0000E94B9178AE792E00E945217EAE7F2E0FB
:1032D00086E0DF011D928A95E9F70E94F917D12C4B
:1032E000DBC07413D8CF6111D6CFD8011596FC93EB
:1032F000C8010E945217EAE7F2E086E0DF011D9262
:103300008A95E9F7C9C0D62E662379F220917F020B
:10331000822F82958F7090E0029774F080917A02EC
:1033200090917B029A8389831B82FD82EC822E839B
:10333000CE0101960E94521786E0F801AAE7B2E09A
:1033400001900D928A95E1F70E9407186FC0E2166E
:10335000F30628F0C701821B930B9C0104C0209543
:1033600030952E0D3F1D283C310508F052C0D62E59
:10337000662309F49ACFE5132CC074132AC08091F8
:103380007F0280FD1DC0982F92959F70C9F0D801D3
:1033900015968C9315979F3039F09F5F9295907F8B
:1033A0008F70892B15968C93C8010E94521786E066
:1033B000F801AAE7B2E001900D928A95E1F736C0D4
:1033C00086E0F801AAE7B2E001900D928A95E1F754
:1033D00063C04D875E878D859E850E9496178823E2
:1033E00079F086E0F801AAE7B2E001900D928A95A3
:1033F000E1F70E9407180E94F917DD24D3944CC00E
:1034000080917F02816080937F02C8010E945217E1
:1034100043C07E2DF98AE88A89890E94B917EAE7B4
:10342000F2E086E0DF011D928A95E9F70E94F91724
:1034300033C0662309F439CF4D875E878D859E851D
:103440000E949617882309F430CFCBCF4D875E8733
:103450008D859E850E94BE1C292F22952F7030E0FD
:10346000223031052CF49F7041F0811106C00CC050
:10347000243031052CF49F7049F4805E883020F0B0
:10348000C8010E945217CF2CDC2C06C0D80115961B
:103490009C91907F91F7F8CF8D2D62960FB6F8949E
:1034A000DEBF0FBECDBFDF91CF911F910F91FF9077
:1034B000EF90DF90CF9008951F93CF93DF93CDB718
:1034C000DEB72C970FB6F894DEBF0FBECDBF4F838B
:1034D000588769877A878B879C87CE0107960E94D9
:1034E0006F188823C1F02F8138858A859B85892BA9
:1034F00031F03F3F11F080E003C02F3FE1F781E062
:10350000811147C04F81588569857A858B859C8557
:103510000E94C8173EC086E0FE013796DE01119674
:1035200001900D928A95E1F7FF81E8854A855B85D8
:103530004115510531F0EF3F31F481E0FF3F19F4BF
:1035400003C081E001C080E080FD23C020914902DA
:1035500030E0C9010196877099276091480270E0B8
:1035600086179707F1F1F983EA835D834C8396E030
:10357000929FD001939FB00D1124A65BBD4FFE0119
:10358000319601900D929A95E1F7809349020E943D
:10359000D81716E08091480290914902891779F175
:1035A000189FC0011124865B9D4F0E946F188823CD
:1035B00031F1E09148021E9FF0011124E65BFD4FBE
:1035C0004081518162817381848195810E94C817F5
:1035D0008091480290E00196877099278093480275
:1035E000D9CF0E9492171092490210924802EAE73E
:1035F000F2E086E0DF011D928A95E9F7CACF2C96AA
:103600000FB6F894DEBF0FBECDBFDF91CF911F91F3
:103610000895EF92FF920F931F93CF93DF939C0136
:10362000009709F471C0F12CEE24E394E90121968E
:10363000F9018491843740F4843008F056C0813019
:1036400081F0823021F160C0853709F449C0C0F1B2
:103650009CE7980F903708F057C08F770E9494141A
:1036600046C089010E5F1F4FFE01849190E2980FC2
:10367000983050F48770FE2D01C0FF0F8A95EAF74D
:103680008F2F0E949F1D15C00E94C11314C0890175
:103690000E5F1F4FFE01849190E2980F983068F4FE
:1036A0008770FE2D01C0FF0F8A95EAF78F2F0E94C9
:1036B000A51D0E94C81DE8011AC00E949414FBCFEA
:1036C0002E5F3F4FFE01C491CC2341F08FE99FE074
:1036D0000197F1F700C00000C150F6CFE90107C023
:1036E000FE01F490E901229602C00E94C1138F2DC1
:1036F000882341F0EFE9FFE03197F1F700C00000C7
:103700008150F6CF9E0192CFDF91CF911F910F9103
:10371000FF90EF90089508950E948B1B60938402A0
:103720007093850280938602909387020C947E1793
:1037300008950C948C1B0F931F9300918402109199
:1037400085022091860230918702602B712B822B9B
:10375000932B1F910F910C948C1B0F931F9300912F
:1037600084021091850220918602309187026023A5
:103770007123822393231F910F910C948C1B0F9321
:103780001F9300918402109185022091860230914E
:10379000870260277127822793271F910F910C942E
:1037A0008C1B08950E94D11B60938002709381024C
:1037B00080938202909383020C947E1760E070E005
:1037C000CB010C94D21B41E050E060E070E004C0FB
:1037D000440F551F661F771F8A95D2F7CB01BA0198
:1037E0000C94D21B41E050E060E070E004C0440F54
:1037F000551F661F771F8A95D2F78091800290919E
:103800008102A0918202B0918302482B592B6A2B2E
:103810007B2BCB01BA010C94D21B41E050E060E05D
:1038200070E004C0440F551F661F771F8A95D2F7BA
:10383000409550956095709580918002909181029D
:10384000A0918202B0918302482359236A237B23EB
:10385000CB01BA010C94D21B41E050E060E070E073
:1038600004C0440F551F661F771F8A95D2F78091B9
:10387000800290918102A0918202B0918302482738
:1038800059276A277B27CB01BA010C94D21B0F93CF
:103890001F93009180021091810220918202309149
:1038A0008302602B712B822B932B1F910F910C9411
:1038B000D21B0F931F9300918002109181022091DF
:1038C00082023091830260237123822393231F910C
:1038D0000F910C94D21B0F931F93009180021091B3
:1038E0008102209182023091830260277127822712
:1038F00093271F910F910C94D21B0895CF92DF92C2
:10390000EF92FF920F931F93CF93DF93EC01C09040
:103910008402D0908502E0908602F0908702809128
:10392000800290918102A0918202B0918302C82A04
:10393000D92AEA2AFB2A0FE110E0B701A601002EDE
:1039400004C076956795579547950A94D2F740FD40
:1039500005C00150110988F780E007C0BE01802F23
:103960000E94D1070197A9F3802FDF91CF911F917A
:103970000F91FF90EF90DF90CF900895CF93DF935A
:10398000EC010E947E1CBE010E94D107DF91CF9105
:103990000895CB010E94BE1C0895809188028595F0
:1039A000859585950895809188028770089598E09F
:1039B000899F90011124622B609388020C94F21B62
:1039C000409188028095842380938802982F977075
:1039D00069F450E0282F332727FD3095421753070D
:1039E00029F08595859585950C940D1C08959091E9
:1039F0008802977081E009F480E0089590911401A5
:103A00009923D9F09091270397FF17C0982F969587
:103A1000969596959F3188F5E0910301F091040108
:103A2000E90FF11D877021E030E001C0220F8A9577
:103A3000EAF78181822B818308954091030150919F
:103A4000040120E030E09FEFFA01E20FF31F6281F2
:103A5000681799F09F3F19F4611101C0922F2F5FF1
:103A60003F4F2E31310581F79F3F39F0FA01E90FC1
:103A7000F11D97FDFA9582830895089590911401A0
:103A80009923E1F09091270397FF18C0982F9695FE
:103A9000969596959F3120F5E0910301F0910401F0
:103AA000E90FF11D877021E030E001C0220F8A95F7
:103AB000EAF720958181282321830895409103010D
:103AC0005091040120E030E0FA01E20FF31F9281EF
:103AD000981301C012822F5F3F4F2E313105A1F79D
:103AE000089581E090E0E0910301F0910401E80F76
:103AF000F91F1082019680329105A9F708959091DF
:103B0000AC02982B9093AC02089580959091AC02F2
:103B100098239093AC0208951092AC02089590916E
:103B2000AB02982B9093AB02089580959091AB02D5
:103B300098239093AB0208951092AB020895909150
:103B4000AA02982B9093AA02089580959091AA02B8
:103B500098239093AA0208951092AA020895809340
:103B600089020895109289020895409103015091AD
:103B7000040120E030E080E0FA01E20FF31F9181C0
:103B800091118F5F2F5F3F4F2F313105A9F70895B6
:103B9000E0910301F09104018091AC028083E091F7
:103BA0000301F091040180819091AB02892B808305
:103BB000E0910301F091040180819091AA02892B88
:103BC000808390918902992361F0E0910301F09143
:103BD00004018081892B80830E94B51D8111109280
:103BE000890280910301909104010C945612CF92A6
:103BF000DF92EF92FF920F931F936C01EE24FF244C
:103C0000C114D104E104F10421F46B017C0180E0D2
:103C100001C080E133272F2D1E2D0D2D011511051B
:103C20002105310519F0885F680179019701860146
:103C3000A4E03695279517950795AA95D1F7011514
:103C400011052105310519F08C5F68017901970193
:103C50008601F2E03695279517950795FA95D1F7E5
:103C6000011511052105310519F08E5F68017901F3
:103C7000B701A6017695679557954795452B462B35
:103C8000472B09F08F5F1F910F91FF90EF90DF900E
:103C9000CF9008956DEE7EEF80E090E00E94722C50
:103CA00060E082E090E00E94542C60E083E090E0CD
:103CB0000E94542C60E084E090E00E94542C60E06C
:103CC00085E090E00E94542C40E050E0BA0188E08A
:103CD00090E00C94662C80E090E00E944E2C21E055
:103CE0008D3E9E4F09F020E0822F089582E090E003
:103CF0000C94402C83E090E00C94402C84E090E005
:103D00000C94402C682F84E090E00C94542C80910B
:103D10002D03843021F11092AE0220E488E190E07E
:103D20000FB6F894A895809360000FBE20936000B2
:103D300080E00E94B40783B7817F846083BF83B72C
:103D4000816083BF7894889583B78E7F83BF88E135
:103D50000FB6F89480936000109260000FBE089533
:103D60000895CF930E945D040E9470040E94B01ECB
:103D7000C0E08C2F0E946E05811105C0CF5FCE3050
:103D8000C1F780E001C081E0CF9108950E949217B1
:103D90000E944A120C94B4071F920F920FB60F9212
:103DA00011248F939F93AF93BF938091AE028111A3
:103DB00013C08091230390912403A0912503B09117
:103DC00026034196A11DB11D8093230390932403E4
:103DD000A0932503B0932603BF91AF919F918F913C
:103DE0000F900FBE0F901F90189582E084BD93E056
:103DF00095BD9AEF97BD80936E0008952FB7F89404
:103E00008091230390912403A0912503B091260370
:103E10002FBF0895CF92DF92EF92FF920F931F93DF
:103E20002FB7F89440912303509124036091250308
:103E3000709126032FBF6A017B01EE24FF248C01C1
:103E400020E030E0C016D106E206F30610F441503F
:103E50005109481B590BCA011F910F91FF90EF9018
:103E6000DF90CF90089578941F920F920FB60F9223
:103E700011248F939F93AF93BF93809123039091CD
:103E80002403A0912503B09126030196A11DB11D25
:103E90008093230390932403A0932503B0932603D8
:103EA000BF91AF919F918F910F900FBE0F901F9078
:103EB00018950E94FB27F8942FEF87EA91E621508E
:103EC00080409040E1F700C0000087E090EBDC010B
:103ED0008093360390933703A0933803B09339034C
:103EE0002CE088E190E00FB6F894A89580936000EC
:103EF0000FBE20936000FFCF0E946B1E811102C095
:103F00000E944A1E0E94761E8093AD020E947E1E71
:103F100090E090932803809327030E947A1E682FD5
:103F200070E080E090E00C94991B8091B20280FFD9
:103F30000BC06091080185E0689FB0011124759560
:103F40006795759567952AC081FF09C06091080142
:103F500085E0689FB0011124759567951FC082FFA9
:103F600007C06091080185E0689FB001112416C068
:103F70004091B3024423C9F060910701461788F7C6
:103F80002091080185E0289F90011124429FC001E3
:103F9000439F900D112470E00E94262C603871051B
:103FA00040F46115710539F002C065E070E0862FBC
:103FB00008958FE7089581E008958091B20280FF0F
:103FC00008C06091060170E07595679575956795D5
:103FD00021C081FF06C06091060170E0759567956C
:103FE00019C082FF04C06091060170E010C080918A
:103FF000B3028823C1F0609105018617A0F7909164
:104000000601989FC001112470E00E94262C6038A0
:10401000710528F46115710521F0862F08958FE749
:10402000089581E0089561E070E0F4CF803F21F4CD
:104030000E94951F819504C0813F29F40E94951F1D
:104040008093B6020895823F21F40E94951F8195C6
:1040500004C0833F29F40E94951F8093B502089500
:10406000893F19F40E94DD1F05C08A3F31F40E9488
:10407000DD1F81958093B70208958B3F21F40E9444
:10408000DD1F819504C08C3F29F40E94DD1F8093C1
:10409000B8020895843F21F48091B402816017C072
:1040A000853F21F48091B402826011C0863F21F4E3
:1040B0008091B40284600BC0873F21F48091B402E8
:1040C000886005C0883F31F48091B402806180939C
:1040D000B40208958D3F21F48091B20281600BC03B
:1040E0008E3F21F48091B202826005C08F3F29F497
:1040F0008091B20284608093B2020895803F39F4C7
:104100008091B60287FF6CC01092B60269C0813FF1
:1041100029F48091B6021816BCF362C09091B502E2
:10412000823F29F497FF5CC01092B50259C0833FCB
:1041300019F41916CCF354C0893F41F48091B702A9
:1041400018160CF04DC01092B7024AC08A3F29F4ED
:104150008091B70287FF44C0F6CF8B3F39F480913E
:10416000B80287FF3DC01092B8023AC08C3F29F4D4
:104170008091B8021816BCF333C0843F21F48091BB
:10418000B4028E7F17C0853F21F48091B4028D7FE9
:1041900011C0863F21F48091B4028B7F0BC0873F12
:1041A00021F48091B402877F05C0883F31F480916B
:1041B000B4028F7E8093B40213C08D3F21F48091AE
:1041C000B2028E7F0BC08E3F21F48091B2028D7FB0
:1041D00005C08F3F29F48091B2028B7F8093B20299
:1041E0008091B50281110EC08091B60281110AC082
:1041F0008091B702811106C08091B802811102C07E
:104200001092B302089584EB92E00E9461120E9422
:10421000FE1E9093B0028093AF0208951F93CF9338
:10422000DF938091AF029091B0020E940A1F4091EB
:10423000B302442321F02091090130E006C020910F
:10424000B1025AE0259F900111248217930708F4C8
:1042500082C08091B5021091B602D091B702C09190
:10426000B802811107C0111105C0D11103C0CC23C0
:1042700009F471C04F3F19F04F5F4093B302181615
:1042800024F40E94951F8093B5028091B50287FFA8
:1042900005C00E94951F81958093B502111624F4E4
:1042A0000E94951F8093B6028091B60287FF05C0D9
:1042B0000E94951F81958093B6026091B502662396
:1042C00039F11091B602112319F1772767FD709526
:1042D000872F972F0E94232B23E333E343E35FE3EE
:1042E0000E94872B0E94F02A6093B502612F7727E6
:1042F00067FD7095872F972F0E94232B23E333E3CD
:1043000043E35FE30E94872B0E94F02A6093B6028A
:104310001D1624F40E94DD1F8093B7028091B7021E
:1043200087FF05C00E94DD1F81958093B7021C1690
:1043300024F40E94DD1F8093B8028091B80287FFA9
:1043400005C00E94DD1F81958093B802DF91CF9157
:104350001F910C940321DF91CF911F910895E4EBFD
:10436000F2E085E0DF011D928A95E9F71092B30231
:104370001092B2020895833081F128F4813059F00F
:104380008230D1F00895853009F449C0B8F1863003
:1043900009F456C008952091B102862F90E0820F53
:1043A000911D8F3F910520F4620F6093B102089533
:1043B0008FEF8093B102089520910901862F90E03C
:1043C000820F911D8F3F910520F4620F60930901C8
:1043D00008958FEF80930901089520910801862F99
:1043E00090E0820F911D8F3F910520F4620F609342
:1043F000080108958FEF8093080108952091070127
:10440000862F90E0820F911D8F3F910520F4620F5F
:104410006093070108958FEF80930701089520911D
:104420000601862F90E0820F911D8F3F910520F4A9
:10443000620F6093060108958FEF8093060108953F
:1044400020910501862F90E0820F911D8F3F9105ED
:1044500020F4620F6093050108958FEF80930501AA
:104460000895833011F128F4813049F0823091F0C1
:104470000895853081F120F18630C1F10895809151
:10448000B102681720F4861B8093B1020895109240
:10449000B102089580910901681720F4861B80936A
:1044A0000901089510920901089580910801681783
:1044B00020F4861B80930801089510920801089546
:1044C00080910701681720F4861B809307010895E7
:1044D00010920701089580910601681720F4861B49
:1044E00080930601089510920601089580910501B8
:1044F000681720F4861B809305010895109205012A
:104500000895873220F58E3108F098C0803109F483
:1045100074C070F4873009F44CC018F4863089F107
:104520002EC08B3009F4A0C08E3009F45CC027C0C7
:10453000863109F499C020F4813109F46FC01FC09D
:10454000893109F491C08B3109F443C018C0883314
:1045500009F48AC050F4893209F47EC0853309F425
:104560007BC0873209F478C00AC0833409F474C070
:1045700020F48A3308F060C002C0883461F080E023
:1045800008958091AD02817F8E7F8093AD0281E09E
:104590008093BA0208950E9492172FEF83ED90E363
:1045A000215080409040E1F700C000000E94591F58
:1045B0005BC09091AD02892F8095817080FB90F94E
:1045C0009093AD02811150C0997F977F9093AD0277
:1045D0004BC09091AD0291FB882780F921E08227A2
:1045E00080FB91F913C09091AD0292FB882780F96E
:1045F00021E0822780FB92F909C09091AD0293FBE4
:10460000882780F921E0822780FB93F99093AD02FF
:10461000882351F191609093AD0208950E94921702
:104620009091270397FB882780F921E0822780FB60
:1046300097F99093270318C027EC01C023EE280FA9
:1046400061E070E080E090E004C0660F771F881F93
:10465000991F2A95D2F704C061E070E080E090E0F5
:104660000E94991B0E94921781E0089580E00895AE
:1046700080E008958E518A3030F4E82FF0E0E35462
:10468000FE4F8081089580E00895CF93C82F8091D8
:10469000BA02813079F018F08230D1F182C0E09115
:1046A0000301F09104018081813169F0823209F0C7
:1046B0007AC009C0E0910301F09104018081813149
:1046C00011F0823249F48C2F0E94362381111DC0D3
:1046D0008C2F0E9481221AC08C2F0E9438238111B6
:1046E00014C0C43179F048F4CB3079F0C03109F00E
:1046F0005EC082E08093BA0208C0C93219F0C833A4
:1047000021F055C01092BA0252C081E0817051C0B0
:10471000C93279F108F5C43161F1A0F4C73009F06C
:1047200044C01092B10294E1909309018093080172
:1047300085E08093070188E08093060188E28093FA
:10474000050133C082EE8C0F863078F58C2F0E94E5
:104750003A238093B90229C0CE34E9F020F4CB3457
:1047600021F56AE013C0C13579F0C235F1F461E09A
:104770000DC08091B902882319F01092B90215C0BA
:1047800081E08093BA0215C061E006C08091B90251
:104790000E94BB210AC06AE08091B9020E943122C6
:1047A00004C01092BA0280E004C081E002C080E040
:1047B000ADCFCF9108958091DB0208950F931F93A1
:1047C000CF93DF9300D01F92CDB7DEB78C010E944C
:1047D0004C26823011F0853019F583E089831B83E4
:1047E0000A838093E9008FEF9091E800815095FD56
:1047F00006C095ED9A95F1F700008111F5CF8091F3
:10480000E80085FF0DC040E050E063E070E0CE01BD
:1048100001960E9469268091E8008E778093E800D7
:104820000F900F900F90DF91CF911F910F910895EE
:10483000CF93DF9300D01F92CDB7DEB720912D0329
:10484000243031F522E02983805891099B838A83A3
:1048500083E08093E9008FEF9091E800815095FD0F
:1048600006C095ED9A95F1F700008111F5CF809182
:10487000E80085FF0DC040E050E063E070E0CE014D
:1048800001960E9469268091E8008E778093E80067
:104890000F900F900F90DF91CF910895CF93DF93FA
:1048A000EC010E944C26823011F08530F9F482E050
:1048B0008093E9008FEF9091E800815095FD06C04C
:1048C00095ED9A95F1F700008111F5CF8091E80000
:1048D00085FF0CC040E050E065E070E0CE010E9432
:1048E00069268091E8008E778093E800DF91CF9170
:1048F0000895CF93DF93EC010E944C26823019F08B
:10490000853009F047C0809114018823E1F080913F
:10491000270387FF18C084E08093E9008FEF909110
:10492000E800815095FD06C095E19A95F1F70000E9
:104930008111F5CF8091E80085FF2CC040E050E068
:1049400060E270E017C081E08093E9008FEF909102
:10495000E800815095FD06C095ED9A95F1F70000AD
:104960008111F5CF8091E80085FF14C040E050E050
:1049700068E070E0CE010E9469268091E8008E77A1
:104980008093E80080E2FE01ABEBB2E001900D9273
:104990008A95E1F7DF91CF91089580912C038111E1
:1049A00009C00E94FB270E9458288091E200846081
:1049B0008093E200089510922C03089508950895BD
:1049C0000C94C61E42E061EC81E00E94752742E033
:1049D00061EC82E00E94752742E061EC83E00E9476
:1049E000752742E261EC84E00C94752780912F03D7
:1049F000833009F455C030F4813071F0823009F40D
:104A00008EC008958A3009F47AC08B3009F460C0F2
:104A1000893009F09CC020C080912E03813A09F0B2
:104A200096C08091E800877F8093E80080913203F0
:104A300090913303892B21F060E080E090E003C087
:104A400060E28BEB92E070E00E94B2268091E80079
:104A50008B778093E800089580912E03813209F0CE
:104A600076C08091320390913303009719F0039739
:104A700009F06DC08091E800877F8093E800809105
:104A8000E80082FD05C080912D038111F8CF5FC041
:104A90008091F1008093DB028091E8008B7753C016
:104AA00080912E03813A09F052C080913203909197
:104AB0003303892B09F04BC08091E800877F8093F6
:104AC000E8008091E80080FFFCCF8091140136C09F
:104AD00080912E038132D9F5809132039091330376
:104AE000892BA9F58091E800877F8093E8000E94D8
:104AF000AA2780913003809314010C94921780911F
:104B00002E03813221F58091E800877F8093E800B1
:104B10000E94AA27809131038093DC02089580913E
:104B20002E03813AA1F48091E800877F8093E8000A
:104B30008091E80080FFFCCF8091DC028093F1003F
:104B40008091E8008E778093E8000C94AA2708955E
:104B500084B7877F84BF88E10FB6F89480936000A4
:104B6000109260000FBE80E8809361001092610097
:104B70000E9499120E94FB270E9458288091E2000F
:104B800084608093E20078940E94D32A0E949B1252
:104B90008AE091E00E94451280912D03853069F4EE
:104BA0000E94871E80912B038823B1F30E94B11EBF
:104BB000882391F30E945326EFCF0E94A3120E94F4
:104BC0000E12EACF292F332723303105A9F06CF4D8
:104BD0002130310509F442C02230310509F043C0CB
:104BE0008DE690E023E935E042C021323105C9F07D
:104BF0002232310519F137C099278130910541F0F2
:104C00008230910541F0892B71F5EFE8F5E005C0A0
:104C1000E7E7F5E002C0EFE5F5E0849190E09F0161
:104C200026C0643000F5E62FF0E0EE0FFF1FED52D6
:104C3000FE4F2081318189E090E019C0643098F402
:104C4000E62FF0E0DF01AA0FBB1FA553BE4F2D9149
:104C50003C91E953FE4F808190E009C082E190E0F1
:104C600020E036E004C080E090E020E030E0FA018F
:104C70003183208308950895CF93C82F0E943B2647
:104C8000C093DD02CF91089580912D03843011F4FB
:104C900082E0089581E008958091DD02811102C0D3
:104CA0000C944426089580E189BD82E189BD09B450
:104CB00000FEFDCF8091D8008F7D8093D800809139
:104CC000E00082608093E0008091E00081FDFCCFF5
:104CD0000895CF92DF92EF92FF920F931F93CF939D
:104CE000DF937C018B01EA010E94CB27811131C047
:104CF000209731F088819981081B190BE80EF91E65
:104D0000C12CD12C0115110519F18091E80085FD08
:104D100014C08091E8008E778093E800209741F0DE
:104D2000888199818C0D9D1D9983888385E011C0B0
:104D30000E94CB27882331F30CC0F70181917F01BA
:104D40008093F10001501109FFEFCF1ADF0ADACF8B
:104D500080E0DF91CF911F910F91FF90EF90DF9056
:104D6000CF900895209134033091350326173707EB
:104D700048F06115710539F42091E8002E772093F1
:104D8000E80001C0B901FC0120E061157105B9F12D
:104D900080912D03882309F440C0853009F43FC079
:104DA0008091E80083FD3DC08091E80082FF06C04D
:104DB0008091E80082FF26C080E008958091E8009D
:104DC00080FFE3CF2091F3008091F20090E0922BDE
:104DD0006115710551F08830910538F421912093C7
:104DE000F100615071090196F3CF21E0089709F0B5
:104DF00020E08091E8008E778093E800C6CF2111F3
:104E0000C7CFD6CF80912D03882339F0853039F074
:104E10008091E80083FFCCCF04C082E0089583E056
:104E2000089581E0089520913403309135032617C9
:104E3000370748F06115710539F42091E8002E77A5
:104E40002093E80001C0B901FC0120E06115710563
:104E5000C1F180912D03882309F441C0853009F404
:104E600040C08091E80083FD3EC08091E80082FF51
:104E700006C08091E80082FF27C080E008958091FD
:104E8000E80080FFE3CF2091F3008091F20090E0F2
:104E9000922B6115710559F08830910540F42491E9
:104EA0002093F1003196615071090196F2CF21E013
:104EB000089709F020E08091E8008E778093E80061
:104EC000C5CF2111C6CFD5CF80912D03882339F0CE
:104ED000853039F08091E80083FFCBCF04C082E0B9
:104EE000089583E0089581E00895982F973058F54C
:104EF0009093E900981739F07091EC002091ED0043
:104F00005091F00003C0242F762F50E021FF19C0EC
:104F10003091EB003E7F3093EB003091ED003D7F10
:104F20003093ED003091EB0031603093EB007093E3
:104F3000EC002093ED005093F0002091EE0027FF4D
:104F400007C09F5FD3CF8F708093E90081E0089501
:104F500080E0089580912E0387FD05C08091E800D0
:104F600080FF0EC012C08091E80082FD05C08091D4
:104F70002D038111F8CF08958091E8008B7708C048
:104F800080912D038111EACF08958091E8008E77FA
:104F90008093E80008958091E4009091E50045E653
:104FA0002091EC0020FF21C02091E80020FD21C0CD
:104FB00020912D03222389F0253089F02091EB00E8
:104FC00025FD0FC02091E4003091E5002817390736
:104FD00039F3415041F0C901E3CF82E0089583E005
:104FE000089581E0089584E008952091E80022FF6B
:104FF000DFCF80E008950E9469280E947128E0EECA
:10500000F0E0808181608083E8EDF0E080818F773F
:10501000808319BCA7EDB0E08C918E7F8C9380814A
:105020008F7E808310922C0308950F931F93CF934C
:10503000DF930E9469280E947128C8EDD0E0888122
:105040008F77888388818068888388818F7D888333
:1050500019BC10922D031092290310922B03109269
:105060002A0300EE10E0F80180818B7F8083888125
:105070008160888342E060E080E00E947527E1EE75
:10508000F0E080818E7F8083E2EEF0E080818160BD
:105090008083808188608083F80180818E7F808317
:1050A000888180618883DF91CF911F910F9108954E
:1050B000E8EDF0E080818F7E8083E7EDF0E0808195
:1050C0008160808384E082BF81E080932C030C9414
:1050D0001528E8EDF0E080818E7F80831092E20059
:1050E00008951092DA001092E10008951F920F9235
:1050F0000FB60F9211242F933F934F935F936F93AB
:105100007F938F939F93AF93BF93EF93FF93809180
:10511000E10082FF0BC08091E20082FF07C0809116
:10512000E1008B7F8093E1000E94D22A8091DA0017
:1051300080FF1FC08091D80080FF1BC08091DA00E3
:105140008E7F8093DA008091D90080FF0DC080E1CE
:1051500089BD82E189BD09B400FEFDCF81E0809365
:105160002D030E94CD2405C019BC10922D030E946E
:10517000DB248091E10080FF19C08091E20080FF74
:1051800015C08091E2008E7F8093E2008091E20062
:1051900080618093E2008091D80080628093D80083
:1051A00019BC85E080932D030E94DF248091E100EB
:1051B00084FF30C08091E20084FF2CC080E189BD73
:1051C00082E189BD09B400FEFDCF8091D8008F7DBA
:1051D0008093D8008091E1008F7E8093E1008091E0
:1051E000E2008F7E8093E2008091E20081608093F4
:1051F000E20080912903882311F084E007C08091A8
:10520000E30087FF02C083E001C081E080932D03AB
:105210000E94E0248091E10083FF29C08091E20098
:1052200083FF25C08091E100877F8093E10082E0C9
:1052300080932D03109229038091E1008E7F80934B
:10524000E1008091E2008E7F8093E2008091E20095
:1052500080618093E20042E060E080E00E94752778
:105260008091F00088608093F0000E94DE24FF911E
:10527000EF91BF91AF919F918F917F916F915F91CE
:105280004F913F912F910F900FBE0F901F90189547
:105290001F920F920FB60F9211242F933F934F93AB
:1052A0005F936F937F938F939F93AF93BF93CF93AE
:1052B000EF93FF93C091E900CF708091EC001092C2
:1052C000E9008091F000877F8093F00078940E943D
:1052D00084291092E9008091F00088608093F000AA
:1052E000C093E900FF91EF91CF91BF91AF919F9152
:1052F0008F917F916F915F914F913F912F910F907F
:105300000FBE0F901F9018951F93CF93DF93CDB7CB
:10531000DEB7AA970FB6F894DEBF0FBECDBFEEE2A0
:10532000F3E08091F100819323E0E633F207C9F7BF
:105330000E94F6248091E80083FF1CC120912E0377
:1053400030912F03832F90E08A30910508F012C12D
:10535000FC01E556FF4F0C943A2C203881F022389E
:1053600009F008C1809132038F708093E900809129
:10537000EB0085FB882780F91092E90006C0809138
:105380002A0390912B03911182609091E800977FFE
:105390009093E8008093F1001092F100C5C0822F35
:1053A0008D7F09F0E7C0222319F0223061F0E2C0BE
:1053B00080913003813009F0DDC0333009F080E0A6
:1053C00080932B0328C080913003811124C0209149
:1053D00032032F7009F4CEC02093E9008091EB00D6
:1053E00080FF19C08091EB00333011F4806211C04E
:1053F00080618093EB0081E090E0022E01C0880F75
:105400000A94EAF78093EA001092EA008091EB0098
:1054100088608093EB001092E9008091E800877F1C
:1054200086C02111A7C0109130031F778091E3003F
:105430008078812B8093E3008091E800877F8093C0
:10544000E8000E94AA278091E80080FFFCCF8091AD
:10545000E30080688093E300112311F083E001C032
:1054600082E080932D0386C02058223008F082C04D
:1054700080913003909131038C3D23E0920779F5C0
:1054800083E08A838AE289834FB7F894DE0113961A
:1054900020E03EE051E2E32FF0E050935700E4912A
:1054A00020FF03C0E295EF703F5FEF708E2F90E01A
:1054B000EA3010F0C79601C0C0968D939D932F5F80
:1054C000243149F74FBF8091E800877F8093E8003F
:1054D0006AE270E0CE0101960E94B22614C0AE01CD
:1054E0004F5F5F4F609132030E94E225009709F4FD
:1054F00041C02091E800277F2093E800BC0189810A
:105500009A810E9413278091E8008B778093E800AE
:1055100031C0203879F58091E800877F8093E800DA
:10552000809129038093F1008091E8008E77809329
:10553000E8000E94AA271EC021111CC090913003D0
:105540009230C0F48091E800877F8093E8009093C8
:1055500029030E94AA2780912903811104C0809108
:10556000E30087FF02C084E001C081E080932D0347
:105570000E94E2248091E80083FF0AC08091E80045
:10558000877F8093E8008091EB0080628093EB003E
:10559000AA960FB6F894DEBF0FBECDBFDF91CF91B4
:1055A0001F9108950895CF9380912D038823B1F022
:1055B0008091E9008F709091EC0090FF02C090E81C
:1055C00001C090E0C92FC82B1092E9008091E8003B
:1055D00083FD0E948429CF70C093E900CF91089584
:1055E00004D06894B1118DC0089570D088F09F5791
:1055F00090F0B92F9927B751A0F0D1F0660F771F1F
:10560000881F991F1AF0BA95C9F712C0B13081F0FE
:1056100077D0B1E0089574C0672F782F8827B85FDE
:1056200039F0B93FCCF3869577956795B395D9F75F
:105630003EF490958095709561957F4F8F4F9F4F69
:105640000895E89409C097FB3EF490958095709575
:1056500061957F4F8F4F9F4F9923A9F0F92F96E9BE
:10566000BB279395F695879577956795B795F11133
:10567000F8CFFAF4BB0F11F460FF1BC06F5F7F4FD0
:105680008F4F9F4F16C0882311F096E911C07723E2
:1056900021F09EE8872F762F05C0662371F096E8EB
:1056A000862F70E060E02AF09A95660F771F881FBA
:1056B000DAF7880F9695879597F9089557FD9058D2
:1056C000440F551F59F05F3F71F04795880F97FBC6
:1056D000991F61F09F3F79F0879508951216130680
:1056E0001406551FF2CF4695F1DF08C016161706AF
:1056F0001806991FF1CF86957105610508940895E4
:10570000E894BB2766277727CB0197F908950BD03C
:1057100078C069D028F06ED018F0952309F05AC0EF
:105720005FC01124EECFCADFA0F3959FD1F3950F90
:1057300050E0551F629FF001729FBB27F00DB11D15
:10574000639FAA27F00DB11DAA1F649F6627B00DA5
:10575000A11D661F829F2227B00DA11D621F739F8E
:10576000B00DA11D621F839FA00D611D221F749F9C
:105770003327A00D611D231F849F600D211D822FE3
:10578000762F6A2F11249F5750408AF0E1F088232A
:105790004AF0EE0FFF1FBB1F661F771F881F915037
:1057A0005040A9F79E3F510570F014C0AACF5F3F4B
:1057B000ECF3983EDCF3869577956795B795F7956A
:1057C000E7959F5FC1F7FE2B880F911D96958795F2
:1057D00097F9089597F99F6780E870E060E0089571
:1057E0009FEF80EC089500240A94161617061806F9
:1057F0000906089500240A941216130614060506D5
:105800000895092E0394000C11F4882352F0BB0F65
:1058100040F4BF2B11F460FF04C06F5F7F4F8F4FC8
:105820009F4F0895AA1BBB1B51E107C0AA1FBB1FB6
:10583000A617B70710F0A61BB70B881F991F5A951C
:10584000A9F780959095BC01CD01089597FB072E8F
:1058500016F4009407D077FD09D00E94122C07FCA3
:1058600005D03EF4909581959F4F08957095619570
:105870007F4F0895EE0FFF1F0590F491E02D0994DE
:10588000F999FECF92BD81BDF89A992780B5089508
:10589000A6E1B0E044E050E00C947A2CA8E1B0E03E
:1058A00042E050E00C947A2C262FF999FECF92BD5D
:1058B00081BDF89A019700B4021639F01FBA20BDD5
:1058C0000FB6F894FA9AF99A0FBE08950396272F07
:1058D0000E94552C0E94542C252F0E94552C242FB9
:1058E0000C94552C0196272F0E94552C0C94542C67
:1058F000DC01CB01FC01F999FECF06C0F2BDE1BD90
:10590000F89A319600B40D9241505040B8F708957E
:04591000F894FFCF39
:105914000520FF8A022808050214DB2379244E247B
:105924001824DE2301000D010D020D030D040D05E5
:105934000D000C010C020C030C040C050C000B01F3
:105944000B020B030B040B050B000A010A020A03EA
:105954000A040A050A0009010902090309040905E0
:1059640009000801080208030804080508000701E3
:1059740007020703070407050700060106020603DA
:1059840006040605060005010502050305040505D0
:1059940005000401040204030404040504000301D3
:1059A40003020303030403050300020102020203CA
:1059B40002040205020001010102010301040105C0
:1059C40001000001000200030004000500010203BD
:1059D40004050607080900404D3639CE0681064BFA
:0C59E400061206A505BE05D705F005005B
:00000001FF
